:100000000C943B270C94192A0C94442A0C946F2AC4
:100010000C949A2A0C94C52A0C94F02A0C941B2B4D
:100020000C94462B0C946C270C946C270C946C2726
:100030000C946C270C946C270C946C270C946C27F4
:100040000C946C270D9442900C946C270C946C27A4
:100050000C946C270C946C270D94E9A80C946E27D3
:100060000C946C270D94E5790C946C270C946C27F8
:100070000C946C270C946C270C946C270C946C27B4
:100080000C946C270C946C270C946C270C946C27A4
:100090000C946C270C946C270C946C270C94F435FE
:1000A0000C946C270C946C270C946C270C946C2784
:1000B0000C946C270C946C270C946C270C946C2774
:1000C0000C946C270C946C270C946C270C946C2764
:1000D0000C946C270C946C270C946C270C946C2754
:1000E0000C946C27B728BC28C128CB28D5284E29CA
:1000F000DF28E728EF28F92803290D291C292629BC
:100100004E2930293A2944297229752964296829F8
:100110006E29AC2979297D29832987298B29912961
:1001200095299929AC299F29A329A729692D692DEA
:10013000712D792D892D912D992DA12DA92D812DEF
:10014000084AD73B3BCE016E84BCBFFDC12F3D6C3E
:1001500074319ABD56833DDA3D00C77F11BED9E4A4
:10016000BB4C3E916BAAAABE000000803F05A84C84
:10017000CDB2D44EB93836A9020C50B99186880850
:100180003CA6AAAA2ABE000000803F000D94BD092B
:100190000D94AE790D94B70D0D9478160D941C0046
:1001A0000D949A040D94EF080D94E1070D94D61761
:1001B0000D9489060D94CE050D94CF170D94A405CA
:1001C0000D94793E0D9421080D94F8050D94A52405
:1001D0000D9484060D9494040D9495400D94BD3CAB
:1001E0000D94A3150D94BE080D948E040D943E1627
:1001F0000D94CE0D0D9480080D9464080D94A00408
:100200000D94A6790D94C6000D94C70E0D94B93CBB
:100210000D94823E0D94C2400D9445160D94200914
:100220000D94A93C00000A0B02090C0D0E080703EF
:1002300004010000000000000000000000000000B9
:1002400000000000000000000000000000000000AE
:10025000121110000000000000000000000000006B
:100260000000000000000000000001021020200833
:100270000810204010204080020102010804020101
:100280000102040810204080804020100804020170
:1002900080040201804020100804020108040201C9
:1002A0000102040810204080010204081020408050
:1002B00005050505070508080808020202020A0AE2
:1002C0000808040404040101010101010101030300
:1002D000030303030303040707070C0C0C0C0C0CAB
:1002E0000C0C0202020206060606060606060B0BA8
:1002F0000B0B0B0B0B0B00002200250028002B0022
:100300002E003100340002010000050108010B013C
:1003100000002100240027002A002D0030003300B7
:1003200001010000040107010A012062797465736C
:10033000206672656500476F20746F3A00737570B0
:10034000706F727400455230370058206F72205918
:100350002073776974636820737475636B0045520A
:1003600030370058206F72205920737769746368A2
:100370002062726F6B656E0045523036005A2073F2
:10038000776974636820737475636B004552303508
:10039000005A207377697463682062726F6B656EB0
:1003A0000045523034005361666574792063697288
:1003B0006375697400455230330048656174657235
:1003C000206572726F7200455230320054656D7054
:1003D0002073656E736F7220424544004552303180
:1003E0000054656D702073656E736F7200455252D4
:1003F0004F52202D2053544F5050454400756C747B
:10040000696D616B65722E636F6D2F0054696E6B41
:1004100065725F4D61726B325F32302E30312E313A
:1004200000202000000000000000000080C0709844
:10043000ECE6F6F6E6EC9870C00000000000000064
:10044000000000000000000080E038CEF7F9FEFF59
:10045000FF03010103FFFFFEFDF3CE38E0C0000003
:1004600000000080E0709CE7F9FEFFFFFFFFFFFF48
:10047000FF3C18183CFFFFFFFFFFFFFFFCFBE79C62
:1004800030E080071F30276F6F6F6F6F6F6F6F6F78
:100490006F6F6E6E6F6F6F6F6F6F6F6F6F6F6F27B6
:1004A000301F070908E38191B1FFB09080E0070891
:1004B0001C22414141221C07081C3E7F7F7F3E1CBD
:1004C00007087F6E6C7872674207081C224A524CFC
:1004D000201F07087F7F415F5F7F7F07087F7F5175
:1004E00055457F7F08080982F88484F88209070847
:1004F0006070381E09080405082A2A2A2A2A0708D3
:1005000010387C1010101E07081C22404F40221C7F
:1005100005083E3E003E3E05087F7F3E1C0807085A
:10052000492A1C7F1C2A490B0808080808080808E3
:10053000083E1C080B08081C3E08080808080808A4
:10054000080708087C466F467C0806082214082223
:100550001408060808142208142206082214082287
:1005600014080508263408163207087F5D494149FA
:100570005D7F07081C3E7F71773E1C07081C2241E7
:100580004F49221C07080708137F13080707084074
:100590004A55404A55400508609E819E6080150678
:1005A000060606FEFEFEFEFC00000000000000FC49
:1005B000FEFEFEFC0000000EFEFEFEFE0000E0FC63
:1005C000FEFEFCE0E0000000CECECE000000C0C089
:1005D000C0C0C0C08000000000000080C0C080001B
:1005E00000000000008080C0C0C0C0C0C0C08080CB
:1005F0000000000006FEFEFEFE0000000080C0C0FD
:10060000C00000000000008080C0C0C0808080006A
:10061000000000C0C0C0C00080C0C0C0C0800000DA
:100620000000007FFFFFFFFF80000000000080FF50
:10063000FFFFFFFF00000000FFFFFFFF000000FFC3
:10064000FFFFFF0000000000FFFFFF00000081F13E
:10065000FFFF3F0F3FFFFCF0F0FCFF3F0F3FFFFEAF
:10066000F880000000C1E1F1F17131010183FFFF69
:10067000FFFC000000FFFFFFFF000C3EFFFFF7C381
:1006800001000000FCFEFF8703113131333F3F3F83
:100690001E000001FFFFFFFF070301010101000031
:1006A00000000000010307070F0F0F0F0F0F0F07C8
:1006B00007070F0F06000000070F0F0700000007D5
:1006C0000F0F0700000000000F0F0F0000060F0FB4
:1006D000070100000001070F0F07010000000107DC
:1006E0000F0F06000003070F0F0E0E060703070F7C
:1006F0000F07000000070F0F0700000000030F0F97
:100700000F060000000307070F0E0E0E0E0E0E065A
:10071000000000000F0F0F0F00000000000000435A
:100720002000432F0048656174696E67207072690C
:100730006E746865616400507265763A20003C20F2
:1007400052455455524E0043414E43454C00207390
:10075000656300206D696E0020686F757200206807
:100760006F7572730011150A00001915120000064A
:1007700009090600000000000000005F00000007FB
:10078000000700147F147F14242A7F2A12231308E1
:10079000646236495522500005030000001C2241C6
:1007A000000041221C00082A1C2A0808083E0808EC
:1007B00000503000000808080808006060000020B1
:1007C000100804023E5149453E00427F400042610C
:1007D0005149462141454B311814127F1027454598
:1007E00045393C4A494930017109050336494949AF
:1007F00036064949291E00363600000056360000EC
:100800000008142241141414141441221408000284
:1008100001510906324979413E7E1111117E7F490D
:100820004949363E414141227F4141221C7F49498D
:1008300049417F090901013E414151327F080808C1
:100840007F00417F41002040413F017F0814224149
:100850007F404040407F0204027F7F0408107F3EBB
:100860004141413E7F090909063E4151215E7F0910
:10087000192946464949493101017F01013F40405C
:10088000403F1F2040201F7F2018207F6314081442
:10089000630304780403615149454300007F4141EB
:1008A000020408102041417F0000040201020440BC
:1008B00040404040000102040020545454787F48D6
:1008C0004444383844444420384444487F385454DD
:1008D0005418087E090102081454543C7F0804048B
:1008E0007800447D40002040443D00007F102844B3
:1008F00000417F40007C041804787C0804047838A8
:10090000444444387C14141408081414187C7C08DB
:100910000404084854545420043F4440203C4040C0
:10092000207C1C2040201C3C4030403C44281028A7
:10093000440C5050503C4464544C44000836410030
:1009400000007F0000004136080008082A1C080843
:100950001C2A0808473120462569205A2569205855
:1009600025692059256900473238205A30205830EF
:10097000205930006275696C64706C6174652E007A
:100980006F662061646A757374696E6720796F752C
:1009900072007468726F7567682074686520707281
:1009A0006F6365737300492077696C6C20677569A4
:1009B000646520796F7500434F4E54494E5545008C
:1009C00043414E43454C00746F207072696E742031
:1009D00069742100616E642070726573732074689D
:1009E0006520627574746F6E006F6E207468652088
:1009F00053442D636172640053656C6563742061B8
:100A0000207072696E742066696C650032312F3215
:100A100031004C45542753205052494E54005265E2
:100A20006164696E6720636172642E2E2E0032311C
:100A30002F323100796F757220556C74696D616B5E
:100A40006572322E2E2E00746861742063616D65AC
:100A5000207769746800506C6561736520696E73F6
:100A60006572742053442D636172640032312F32F9
:100A700031006D616B652061203344205072696ED6
:100A800074210049276D207265616479206C65745A
:100A900027730032302F32310041524520594F55D3
:100AA0002052454144593F0066726F6D206E6F7A47
:100AB0007A6C652E2E2E006D6174657269616C20F2
:100AC0006578697473005075736820627574746F0B
:100AD0006E207768656E0031392F323100434F4EFA
:100AE00054494E5545004C6F6164696E67206D61D5
:100AF00074657269616C2E2E2E0031382F323100F0
:100B000061626F766520746865206172726F772EFE
:100B100000796F757220556C74696D616B65723206
:100B20002C0066726F6D207468652072656172209A
:100B30006F6600496E73657274206E6577206D6113
:100B400074657269616C0031372F323100434F4E4A
:100B500054494E5545006D6174657269616C206C35
:100B60006F6164696E67007072696E746865616454
:100B70002068656174696E6720666F7200506C65ED
:100B800061736520776169742C0031362F32310032
:100B900053656C65637420746865206D617465725B
:100BA00069616C006974206973207573696E672EC2
:100BB000006F66206D6174657269616C006B6E6FA9
:100BC00077732077686174206B696E64004E6F776D
:100BD00020796F757220556C74696D616B65723226
:100BE0000031352F323100434F4E54494E554500A8
:100BF000697320746869732072696768743F00596B
:100C00006F7520686176652063686F73656E00316B
:100C1000342F323100594553004E4F00206173206C
:100C20006D6174657269616C2C0031332F32310053
:100C30004D4154455249414C00556C74696D616B8E
:100C40006572322E00696E7365727420696E20744D
:100C5000686973006D6174657269616C20796F7584
:100C60002077696C6C004E6578742C2073656C6518
:100C70006374207468650031322F3231005245416F
:100C8000445900746F20696E73657274206D6174CD
:100C9000657269616C2E00746865206E65787420D9
:100CA0007374657020697300746865206275696C7F
:100CB00064706C617465004E6F7720746861742095
:100CC0007765206C6576656C65640031312F323153
:100CD00000434F4E54494E55450074686520726973
:100CE00067687420636F726E65722E2E2E005265D7
:100CF00070656174207468697320666F72003130AA
:100D00002F323100434F4E54494E554500444F4E0B
:100D10004500746865206C65667420636F726E654B
:100D2000722E2E2E0052657065617420746869738E
:100D300020666F7200392F323100434F4E54494EB6
:100D400055450062697420726573697374616E63DE
:100D5000652E00756E74696C20796F752066656507
:100D60006C2061006275696C64706C6174652061EF
:100D70006E64206E6F7A7A6C6500536C69646520CE
:100D800061207061706572206265747765656E00C0
:100D9000382F323100434F4E54494E554500434F92
:100DA0004E54494E554500473120462569205A305A
:100DB00000473120462569205825692059256900BA
:100DC000473120462569205A3500746865206275D0
:100DD000696C64706C617465206C6576656C2E005E
:100DE000706170657220746F2066696E652D747510
:100DF0006E65006E6F77207573652061207368657E
:100E00006574206F6600526570656174207468694E
:100E10007320737465702C2062757400372F323123
:100E200000434F4E54494E55450066726F6D207415
:100E30006865206275696C64706C6174652E006908
:100E4000732061206D696C6C696D657465722061D9
:100E50007761790073637265772074696C6C2074B4
:100E60006865206E6F7A7A6C65005475726E2072B8
:100E700069676874206275696C64706C6174650080
:100E8000362F323100434F4E54494E5545004731BD
:100E900020462569205A30004731204625692058D0
:100EA00025692059256900473120462569205825A4
:100EB000692059256900473120462569205A3500A7
:100EC00066726F6D20746865206275696C64706C01
:100ED0006174652E0069732061206D696C6C696DA9
:100EE000657465722061776179007363726577203C
:100EF00074696C6C20746865206E6F7A7A6C65001A
:100F00005475726E206C656674206275696C6470CD
:100F10006C61746500352F323100434F4E54494E99
:100F2000554500473120462569205A300047312079
:100F300046256920582569205925690047312046F2
:100F40002569205825692059256900473120462503
:100F500069205A350066726F6D207468652062756D
:100F6000696C64706C6174652E0061206D696C6CD5
:100F7000696D65746572206177617900756E746959
:100F80006C20746865206E6F7A7A6C6520697300D6
:100F9000526F746174652074686520627574746F33
:100FA0006E00342F323100434F4E54494E554500A8
:100FB000434F4E54494E5545004731204625692040
:100FC0005A2569205825692059256900676F696E7F
:100FD0006720746F20646F2074686174206E6F776F
:100FE0002E0061646A7573746D656E74732C20775E
:100FF0006520617265007765206E65656420746F99
:1010000020646F20736F6D65004166746572207493
:1010100072616E73706F72746174696F6E00332FDA
:10102000323100434F4E54494E554500473120461A
:101030002569205A256900612066697273742072DF
:10104000756E2077697A6172642E0077616C6B200F
:10105000796F75207468726F75676800666972735E
:1010600074207374617274757020492077696C6C98
:1010700000426563617573652074686973206973E4
:101080002074686500322F323100434F4E54494E70
:10109000554500627574746F6E20746F20636F6EB7
:1010A00074696E756500556C74696D616B6572214C
:1010B0002050726573732074686500737461727474
:1010C0007570206F6620796F75720057656C636F5D
:1010D0006D6520746F207468652066697273740092
:1010E000312F323100434F4E54494E554500430095
:1010F000432F00436C69636B20746F2072657475B5
:10110000726E004275696C64706C61746520746500
:101110006D702E3A00250046616E2073706565641F
:10112000004578706572742066756E6374696F6EC1
:10113000730041646A757374206275696C64706CC5
:10114000617465005365742066616E207370656517
:1011500064004D6F7665206D6174657269616C0025
:10116000496E73657274206D6174657269616C009B
:101170005261697365206275696C64706C61746535
:10118000004C6F776572206275696C64706C617475
:101190006500486F6D65206865616400486561742D
:1011A0007570206275696C64706C61746500486567
:1011B00061747570206E6F7A7A6C65004475616C2D
:1011C00020457874727573696F6E0050726566653C
:1011D00072656E636573002500432F004300432F43
:1011E00000432000432F004300466163746F72790F
:1011F0002072657365740052756E74696D65207335
:10120000746174730056657273696F6E00506F7706
:10121000657220627564676574005072696E74202F
:1012200061726561004D6F74696F6E2073657474CF
:10123000696E67730052657472616374696F6E20C2
:1012400073657474696E67730054656D706572615F
:101250007475726520636F6E74726F6C004865619F
:101260007465722074696D656F757400536372657F
:10127000656E20636F6E747261737400536C656584
:10128000702074696D6572005363726F6C6C2066B8
:10129000696C656E616D657300436C69636B207387
:1012A0006F756E64004C45442073657474696E6795
:1012B00073005573657220696E746572666163654B
:1012C0000054696E6B65725F4D61726B325F3230D4
:1012D0002E30312E31006F66660073006F66662017
:1012E0002F20006D696E202F200025004469736156
:1012F000626C656400456E61626C65640053746184
:101300006E646172640053686F7274207469636BF9
:10131000004F66660025005374616E64617264203C
:101320004D6F6465004765656B204D6F64650047D0
:1013300065656B204D6F6465003E005374616E649B
:10134000617264204D6F6465003E005573657220C4
:10135000696E746572666163650020476C6F772003
:101360007768656E20646F6E6500204F6E20776829
:10137000696C65207072696E74696E670020416CDB
:1013800077617973204F66660020416C77617973CD
:10139000204F6E004272696768746E657373002532
:1013A0000025004272696768746E657373004C456E
:1013B0004400203F3F3F004F6666003E0053686F89
:1013C0007274207469636B003E005374616E6461D3
:1013D00072642062656570003E00436C69636B2037
:1013E000736F756E64005363726F6C6C2066696C0A
:1013F000656E616D6573003E004E6F207363726FA2
:101400006C6C696E67003E005363726F6C6C206693
:10141000696C656E616D6573002500436C69636B73
:1014200020746F2072657475726E00536372656507
:101430006E20636F6E747261737400496E766572AC
:1014400074206178697300417869732073746570E2
:10145000732F6D6D004D6F746F72204375727265DE
:101460006E74004D61782E20617869732073706509
:10147000656400416363656C65726174696F6E00D9
:101480004D4F54494F4E0054696E6B65725F4D610C
:10149000726B325F32302E30312E31004A616E2055
:1014A000323620323032302031393A31313A343923
:1014B0000052657475726E006D00204D61743A00C3
:1014C0003A005072696E74696E673A003A004D6175
:1014D0006368696E65206F6E20666F723A005265B0
:1014E0007475726E00746F2064656661756C743F0C
:1014F0000052657365742065766572797468696EEB
:101500006700594553004E4F0050524546455245DD
:101510004E434553004300432F00436C69636B20E7
:10152000746F2072657475726E004E6F7A7A6C6596
:101530002074656D70657261747572653A0047312B
:10154000205A343000414456414E43454400432F15
:10155000004300436C69636B20746F20726574757F
:10156000726E00526F7461746520746F20657874B8
:1015700072756465004E6F7A7A6C652074656D7063
:10158000657261747572653A004255494C442D7C10
:10159000504C41544500414456414E43454400524D
:1015A000455455524E0054504C4100505000545038
:1015B0005520393541004350452B004E796C6F6EF4
:1015C000005043004350450041425300504C4100FD
:1015D0006C63645F6D6174657269616C5F72657381
:1015E00065745F64656661756C747300496D706FD6
:1015F00072742066726F6D205344004578706F726C
:101600007420746F20534400437573746F6D697A4E
:1016100065004C6F61647320616C6C206D61746552
:101620007269616C7300536176657320616C6C2024
:101630006D6174657269616C73004D6F6469667980
:10164000207468652073657474696E677300250083
:1016500046616E3A2000430043002500466C6F77D8
:101660003A006D6D0053746F726520617320707263
:10167000657365740052657472616374696F6E009E
:10168000466C6F7720250046616E004469616D6588
:1016900074657200486561746564206275696C6484
:1016A000706C6174650054656D70657261747572FB
:1016B0006500250025006D6D004300432000432098
:1016C0000054656D70657261747572653A200043EF
:1016D00000430054656D7065726174757265004DEC
:1016E0004154455249414C005265747261637469BA
:1016F0006F6E3A20006D6D2F73006D6D2000526586
:1017000074726163742073706565640052657472ED
:10171000616374206C656E677468006D6D2F73650E
:1017200063006D6D006D6D2F73656300526574729B
:10173000616374207370656564006D6D005265743B
:1017400072616374206C656E677468005245545210
:10175000414354494F4E004D4154455249414C007C
:101760004E6577207072657365740050524553451D
:1017700054530025004D6174657269616C20666C7C
:101780006F7700250046616E207370656564006D9B
:101790006D004D6174657269616C204469616D65AD
:1017A0007465720043004275696C64706C617465A5
:1017B0002054656D702E004D4154455249414C00F6
:1017C000696E204D4154455249414C2E54585400A5
:1017D000746F207468652053442063617264005301
:1017E00061766564206D6174657269616C73004F28
:1017F0004B000A006469616D657465723D000A0002
:10180000666C6F773D000A0066616E5F7370656598
:10181000643D000A006265645F74656D70657261A5
:10182000747572653D000A003D00726574726163F3
:1018300074696F6E5F73706565645F000A003D00D8
:1018400072657472616374696F6E5F6C656E6774E4
:10185000685F000A003D0074656D706572617475A3
:1018600072655F000A0074656D70657261747572EF
:10187000653D000A006E616D653D005B6D617465DC
:101880007269616C5D0A0052656164696E6720630C
:101890006172642E2E2E00506C6561736520696E36
:1018A000736572742063617264004E6F2053442D1F
:1018B000434152442100696E76616C696420006D79
:1018C0006174657269616C20696D706F727421005A
:1018D0004572726F7220647572696E67007375630A
:1018E0006365737366756C004D6174657269616CD4
:1018F00020696D706F7274004F4B00726574726175
:101900006374696F6E5F73706565645F00726574A0
:1019100072616374696F6E5F6C656E6774685F0097
:1019200074656D70657261747572655F006469617C
:101930006D6574657200666C6F770066616E5F73CB
:1019400070656564006265645F74656D7065726181
:10195000747572650074656D706572617475726519
:1019600000416464696E67206D6174657269616CC1
:1019700020006E616D65005B6D6174657269616CFC
:101980005D0053746172742072656164206D6174CE
:10199000657269616C7300666F756E64206F6E208E
:1019A000636172642E004E6F206D617465726961AF
:1019B0006C2066696C650052656164696E672063BE
:1019C0006172642E2E2E00506C6561736520696E05
:1019D000736572742063617264004E6F2053442DEE
:1019E000434152442100666F7220657874727564B9
:1019F0006572203200666F72206578747275646556
:101A00007220310053656C6563746564206D617488
:101A1000657269616C3A004F4B004D415445524923
:101A2000414C0029002800636F6D6573206F757449
:101A3000206E6F7A7A6C6500576169742074696CE6
:101A40006C206D6174657269616C00524541445946
:101A50000043414E43454C00466F727761726469A2
:101A60006E67206D6174657269616C0029002800E1
:101A7000457874727564657200796F7572206D6156
:101A80006368696E650066726F6D207468652062B8
:101A900061636B73696465206F66002900280066C6
:101AA0006F7220657874727564657200496E736533
:101AB0007274206E6577206D6174657269616C0067
:101AC00052454144590043414E43454C00666F72B4
:101AD00020696E73657274696F6E00290028004377
:101AE0006F6F6C696E67206E6F7A7A6C65004865FF
:101AF0006174696E67206E6F7A7A6C6500250046A6
:101B0000616E3A2000430043002500466C6F773A2F
:101B1000006D6D004D4154455249414C0052656D78
:101B20006F7665206D6174657269616C00290028AB
:101B300000457874727564657200524541445900DD
:101B400043414E43454C00526576657273696E673A
:101B5000206D6174657269616C0029002800457808
:101B600074727564657200666F72206D617465725F
:101B700069616C2072656D6F76616C0029002800C8
:101B8000436F6F6C696E67206E6F7A7A6C65004880
:101B9000656174696E67206E6F7A7A6C6500434880
:101BA000414E47450053455454494E475300524512
:101BB0005455524E004D3834205820592045006568
:101BC00063686F3A004572726F723A0041424F5239
:101BD000540041424F52540054554E450054554E06
:101BE00045004D4154455249414C004348414E4700
:101BF00045004D4154455249414C004348414E47F0
:101C00004500524553554D457C0050415553494E72
:101C1000477C004241434B004241434B0054554EE8
:101C2000450054554E450041424F52547C005041AE
:101C30005553457C004D36303120582575205925A7
:101C400075205A2575204C257300536C65657020EE
:101C500074696D6572004D6F7665206D6174657293
:101C600069616C004C4544204272696768746E6516
:101C70007373004578747275646572206F6666735D
:101C8000657400546F6F6C6368616E676520726580
:101C90007472616374203200546F6F6C6368616E9C
:101CA00067652072657472616374203100526574D7
:101CB00072616374696F6E004D6174657269616C05
:101CC00020666C6F772032004D6174657269616CBB
:101CD00020666C6F7720310046616E2073706565F9
:101CE00064004275696C64706C6174652054656D44
:101CF000702E005072696E742054656D706572614B
:101D0000747572652032005072696E742054656D6E
:101D10007065726174757265203100537065656419
:101D2000002500250025002500432F004300432FF8
:101D3000004300432F0043002500290020280043D2
:101D400000432F00436C69636B20746F20726574CD
:101D500075726E004275696C64706C6174650054D4
:101D6000656D706572617475726500457874727521
:101D7000646572206368616E6765206C656E0045FE
:101D80006E64206F66207072696E74206C656E6779
:101D90007468005265747261637420737065656461
:101DA0000052657472616374206C656E67746800BC
:101DB0006D6D006D6D2F736563006D6D006D6D2F22
:101DC0007365630052657472616374207370656536
:101DD00064006D6D0052657472616374206C656E91
:101DE0006774680052455452414354494F4E002590
:101DF000004272696768746E6573730025004D61F7
:101E000074657269616C20666C6F77203200250002
:101E10004D6174657269616C20666C6F772031006A
:101E2000250046616E207370656564002500507260
:101E3000696E742073706565640054554E450029C1
:101E4000002028004300432F00436C69636B20741B
:101E50006F2072657475726E004E6F7A7A6C6520B1
:101E60000054656D706572617475726500507269B9
:101E70006E742066696E6973686564005072696E7D
:101E800074657220636F6F6C696E6720646F776E24
:101E900000430043200068006D696E0054696D6561
:101EA00020004241434B20544F204D454E550041A8
:101EB000626F7274696E672E2E2E0063616E6365A9
:101EC0006C0041626F727420746865207072696E74
:101ED000743F00594553004E4F0050726570617257
:101EE000696E6720746F207072696E743A0048657D
:101EF0006174696E672075702E2E2E0054554E4504
:101F00000041424F52540025732076732025730000
:101F10006D6174657269616C2E00666F722061205C
:101F2000646966666572656E7400546869732066DC
:101F3000696C652069732063726561746564004330
:101F40004F4E54494E55450043414E43454C005475
:101F5000696D65206C6566740054696D65206C65FB
:101F6000667420756E6B6E6F776E00432F004300B2
:101F700048656174696E67206275696C64706C6134
:101F8000746500432F00432000432F004300486541
:101F90006174696E67005072696E74696E673A00A9
:101FA00054554E450050415553450066726F6D20A3
:101FB00074686520736C696365722E007365747450
:101FC000696E6720776974682073657474696E67D9
:101FD000006F76657272696465206D616368696E11
:101FE0006500546869732066696C652077696C6C5C
:101FF00000434F4E54494E55450043414E43454CD6
:10200000003C204241434B00534420434152440092
:102010003B464C41564F523A556C746947436F6486
:1020200065003B464C41564F523A556C74694743E4
:102030006F6465004E6F2066696C657320666F750E
:102040006E6421004F4B004F4B0052656164696E16
:102050006720636172642E2E2E00506C656173657B
:1020600020696E736572742063617264004E6F2024
:1020700053442D4341524421004E6F20696E666FD8
:1020800020617661696C61626C65002F004E6F7A29
:102090007A6C6520006D006D006D006D004D6174FF
:1020A0002E200068006D696E0054696D6520003B4C
:1020B0004D54595045323A003B4E4F5A5A4C455FA9
:1020C0004449414D45544552323A003B4D415445F7
:1020D0005249414C323A003B4D545950453A003B2D
:1020E0004E4F5A5A4C455F4449414D455445523A2A
:1020F000003B4D4154455249414C3A003B54494DF7
:10210000453A00466F6C646572006F6620707269B4
:102110006E74696E672061726561005472696564EE
:10212000207072696E74696E67206F757400455215
:10213000524F523A0052455455524E20544F204D62
:1021400041494E00756C74696D616B65722E636FE9
:102150006D2F4552303800476F20746F3A0072651A
:102160006164696E672053442D6361726421004588
:1021700072726F72207768696C65005245545552CF
:102180004E20544F204D41494E00473130004731D9
:10219000205A256420462564001F001F2F001F00C1
:1021A0004275696C64706C61746520001F001F2F9C
:1021B000001F004E6F7A7A6C6528322920001F00BC
:1021C0001F2F001F004E6F7A7A6C6528312920007E
:1021D0006F6666006F6E004275696C64706C617446
:1021E000653A20006F6666006F6E004E6F7A7A6CFB
:1021F000652832293A20006F6666006F6E004E6FC8
:102200007A7A6C652831293A20004241434B0042DA
:1022100041434B0052657475726E20746F206D617E
:10222000696E206D656E7500434F4F4C00434F4FF4
:102230004C00436F6F6C20646F776E20616C6C0094
:102240005052494E54005052494E540053746172DA
:1022500074207072696E74005072656865617400F4
:102260001F002F001F002F004D4154455249414C83
:10227000005354415254004348414E4745004D4F8E
:1022800056450053455454494E4753004144564126
:102290004E434544005052494E5400505245484523
:1022A0004154004D41494E54454E414E4345004D29
:1022B0004154455249414C005052494E54004558F2
:1022C0005452554445527C3100455854525544456A
:1022D000527C320052455455524E00290041646AE6
:1022E000757374205A20286E6F7A7A6C65200050BE
:1022F00072696D652F5769706520706F73697469B5
:102300006F6E00446F636B696E6720706F736974E2
:10231000696F6E004578747275646572206F6666C9
:1023200073657400546F6F6C6368616E67652072CB
:10233000657472616374004368616E6765206578D7
:10234000747275646572004475616C206D6F6465AC
:10235000006F666600656E61626C6564006F66663C
:1023600000656E61626C6564005769706520646524
:10237000766963653A0057697065206465766963BC
:1023800065006F666600656E61626C656400546F1F
:102390006F6C6368616E67653A00546F6F6C636859
:1023A000616E676520736372697074006F666600A2
:1023B000656E61626C6564004475616C206D6F646C
:1023C000653A004475616C206D6F64650052455438
:1023D00055524E00436C69636B20746F20726574B4
:1023E00075726E0053544F52450053746F726520DE
:1023F0006475616C206D6F6465004475616C207359
:1024000074617465004D383420582059006D6D009A
:102410005900646F636B20706F736974696F6E200D
:1024200079005800646F636B20706F736974696F13
:102430006E20780043414E43454C0041626F7274F8
:102440002066756E6374696F6E0053544F52450079
:1024500053746F726520646F636B20706F7369745F
:10246000696F6E00446F636B696E6720706F73698C
:1024700074696F6E00507265706172696E672E2E9E
:102480002E006D6D005900646F636B20706F73696F
:1024900074696F6E2079006D6D005800646F636B16
:1024A00020706F736974696F6E20780052455455BF
:1024B000524E00436C69636B20746F2072657475B3
:1024C000726E004D4F5645004D6F76652068656110
:1024D000640053544F52450053746F726520646F0B
:1024E000636B20706F736974696F6E00446F636B08
:1024F000696E6720706F736974696F6E006D6D002F
:1025000059007769706520706F736974696F6E2008
:1025100079006D6D0058007769706520706F736980
:1025200074696F6E20780052455455524E00436CCA
:1025300069636B20746F2072657475726E005354FA
:102540004F52450053746F72652077697065207033
:102550006F736974696F6E005072696D652F57698A
:10256000706520706F736974696F6E004475616C7B
:1025700020657874727573696F6E005072696D654D
:10258000004578747261207072696D696E672028E9
:102590006D6D2900537065656400526574726163E6
:1025A0007420737065656420286D6D2F7329004C4D
:1025B000656E0052657472616374206C656E2028CC
:1025C0006D6D290052455455524E00436C69636B42
:1025D00020746F2072657475726E0053544F5245AB
:1025E0000053746F72652072657472616374207633
:1025F000616C75657300546F6F6C6368616E6765BD
:10260000207265747261637400290028006D6D008A
:102610005A005A206F6666736574002900280059B5
:10262000206F6666736574206C696E65206E6F2E10
:10263000006D6D00590059206F666673657400293E
:1026400000280058206F6666736574206C696E659B
:10265000206E6F2E006D6D00580058206F666673F7
:1026600065740052455455524E00436C69636B20AB
:10267000746F2072657475726E0053544F5245002A
:1026800053746F7265206F66667365747300457866
:10269000747275646572206F6666736574005700A6
:1026A0004578747275646572203200320057617427
:1026B00074616765204578747275646572005700AF
:1026C0003100457874727564657200310057617429
:1026D000746167652045787472756465720057008F
:1026E0004275696C64706C617465005761747461E3
:1026F0006765204275696C64706C61746500570091
:10270000546F74616C00546F74616C20506F776506
:102710007220427564676574004241434B00424138
:10272000434B00436C69636B20746F207265747552
:10273000726E0053544F52450053746F7265206F90
:102740007074696F6E7300506F77657220427564A4
:10275000676574004275696C64706C6174650045EE
:10276000787472756465722032004578747275648D
:1027700065722031004B640044657269766174694A
:10278000766520636F6566662E004B6900496E743E
:10279000656772616C20636F656666696369656E03
:1027A00074004B700050726F706F7274696F6E615D
:1027B0006C20636F6566662E004241434B004241C8
:1027C000434B00436C69636B20746F2072657475B2
:1027D000726E004155544F00537461727420504919
:1027E00044206175746F74756E650053544F524583
:1027F0000053746F72652050494420736574746986
:102800006E6773005049442073657474696E677312
:1028100000283129004578747275646572004B6434
:10282000004465726976617469766520636F6566D8
:10283000662E004B6900496E74656772616C206397
:102840006F656666696369656E74004B70005072EF
:102850006F706F7274696F6E616C20636F6566660E
:102860002E004241434B004241434B00436C69639D
:102870006B20746F2072657475726E004155544FF1
:1028800000537461727420504944206175746F74F0
:10289000756E650053544F52450053746F72652036
:1028A0005049442073657474696E677300504944DD
:1028B0002073657474696E67730028322900457847
:1028C0007472756465720043414E43454C0054690F
:1028D0006D656F7574006661696C656421005049AF
:1028E00044204175746F74756E650054656D706534
:1028F00072617475726520746F6F20686967680013
:102900006661696C65642100504944204175746FAB
:1029100074756E65007468652073657474696E679C
:10292000732E00596F752063616E2073746F72652A
:102930000066696E697368656421005049442041EE
:1029400075746F74756E6500434F4E54494E55450E
:10295000001F2F001F004275696C64706C61746504
:10296000004578747275646572001F2F001F002F78
:10297000002E005049442074756E696E67004379DB
:10298000636C65730074756E696E67206379636C40
:102990006573001F0054656D7065726174757265B2
:1029A0000074756E696E672074656D706572617410
:1029B000757265004241434B004241434B00436CFA
:1029C00069636B20746F2072657475726E00535466
:1029D000415254005374617274205049442061750F
:1029E000746F74756E65005049442074756E65206F
:1029F0006F7074696F6E7300457874727564657278
:102A0000004275696C64706C617465004B640044CD
:102A100065726976617469766520636F6566662E96
:102A2000004B6900496E74656772616C20636F6565
:102A30006666696369656E74004B700050726F70F2
:102A40006F7274696F6E616C20636F6566662E00CD
:102A50004275696C642D7C706C61746500504944EA
:102A6000206D6F6465004241434B004241434B007F
:102A7000436C69636B20746F2072657475726E00AD
:102A80004155544F00537461727420504944206181
:102A900075746F74756E650053544F5245005374CE
:102AA0006F7265205049442073657474696E677352
:102AB000005049442073657474696E67730050490F
:102AC00044206F66660054656D706572617475723E
:102AD0006520636F6E74726F6C006F6666002073A2
:102AE0006563004D61782E20706F776572005065C8
:102AF00072696F64206F66206D61782E20706F7729
:102B00006572006F666600206D696E0054696D65C0
:102B10006F75740049646C652074696D656F7574B8
:102B2000004241434B004241434B00436C69636B9D
:102B300020746F2072657475726E0053544F524545
:102B40000053746F7265206F7074696F6E73004804
:102B5000656174657220636865636B006D6D2F73CA
:102B600000582F59204A65726B004D61782E20580D
:102B70002F59204A65726B006D6D2F731E004163E3
:102B800063656C00416363656C65726174696F6E47
:102B9000004241434B004241434B00436C69636B2D
:102BA00020746F2072657475726E0053544F5245D5
:102BB0000053746F72652073657474696E67730077
:102BC000416363656C65726174696F6E006D6D2F32
:102BD000730045004D61782E207370656564204553
:102BE000006D6D2F73005A004D61782E2073706553
:102BF0006564205A006D6D2F730059004D61782E69
:102C00002073706565642059006D6D2F7300580046
:102C10004D61782E207370656564205800424143F1
:102C20004B004241434B00436C69636B20746F203F
:102C300072657475726E0053544F52450053746F31
:102C400072652073657474696E6773004D61782EC8
:102C50002053706565640045320045787472756470
:102C60006572203220286D41290045310045787475
:102C70007275646572203120286D4129005A005A0E
:102C8000206178697320286D412900582F59005818
:102C90002F59206178697320286D412900424143F2
:102CA0004B004241434B00436C69636B20746F20BF
:102CB00072657475726E0053544F52450053746FB1
:102CC00072652073657474696E6773004D6F746FFD
:102CD000722043757272656E74006D6D00456E648E
:102CE000206C656E67746800456E64206F662070A6
:102CF00072696E74206C656E677468006D6D2F73F9
:102D00000052657472616374207370656564006D50
:102D10006D00526574726163740052657472616310
:102D200074206C656E677468004241434B004241F9
:102D3000434B00436C69636B20746F20726574753C
:102D4000726E0053544F52450053746F7265207376
:102D5000657474696E677300526574726163746937
:102D60006F6E2073657474696E6773006E6F00799F
:102D70006573003A00496E7665727400453200450D
:102D80007874722E3200453100457874722E31000D
:102D90005A005A0059005900580058004241434B0C
:102DA000004241434B00436C69636B20746F207297
:102DB000657475726E0053544F52450053746F72B0
:102DC0006520696E7665727420666C616773004970
:102DD0006E766572742061786973004532004578BB
:102DE00074727564657220322073746570732F6D10
:102DF0006D0045310045787472756465722031202C
:102E000073746570732F6D6D005A005A207374656A
:102E100070732F6D6D005900592073746570732F96
:102E20006D6D005800582073746570732F6D6D00C0
:102E30004241434B004241434B00436C69636B206A
:102E4000746F2072657475726E0053544F52450052
:102E500053746F72652073746570732F6D6D0041CC
:102E60007869732073746570732F6D6D006D6D00DC
:102E70005A004D6178696D756D205A20636F6F72CD
:102E800064696E617465006D6D002D004D61786937
:102E90006D756D205920636F6F7264696E61746522
:102EA000006D6D0059004D696E696D756D2059207A
:102EB000636F6F7264696E617465006D6D002D00E3
:102EC0004D6178696D756D205820636F6F7264690C
:102ED0006E617465006D6D0058004D696E696D75A9
:102EE0006D205820636F6F7264696E617465004273
:102EF00041434B004241434B00436C69636B207478
:102F00006F2072657475726E0053544F52450053B2
:102F1000746F72652061786973206C696D69747370
:102F2000005072696E742061726561002500476C03
:102F30006F77004C454420736C65657020676C6F3B
:102F400077006F66660025004C434420736C65650E
:102F50007020636F6E747261737400536372656581
:102F60006E006F6666006D696E0053637265656E14
:102F70002074696D656F75740025004C454420739D
:102F80006C656570206272696768746E6573730042
:102F90004C69676874006F6666006D696E004C4529
:102FA000442074696D656F7574004241434B004263
:102FB00041434B00436C69636B20746F20726574EE
:102FC00075726E0053544F52450053746F726520F2
:102FD0006F7074696F6E7300536C656570207469EF
:102FE0006D6572006D6D00526F7461746520746F51
:102FF000206578747275646500526573657420701D
:103000006F736974696F6E00436C69636B2026206F
:10301000686F6C6420746F206C6F616400436C692E
:10302000636B202620686F6C6420746F2070756C51
:103030006C001F001F2F001F2F001F0029200028D9
:10304000004E6F7A7A6C652000546F67676C65205C
:10305000686561746572004241434B004241434BD5
:1030600000436C69636B20746F2072657475726EB7
:103070000054554E450054554E45004D6F72652025
:103080006F7074696F6E7300290028004D6F76654C
:10309000206D6174657269616C004D383420583060
:1030A000205930004D3834205830205930004D38E8
:1030B000342058302059300044697361626C6520B7
:1030C00058592D737465707065727300446973612B
:1030D000626C652058592D73746570706572730049
:1030E0004D6F7665206865616420746F2066726F2D
:1030F0006E74004D6F7665206865616420746F2082
:1031000066726F6E7400486F6D652068656164005B
:10311000486F6D652068656164004241434B004221
:1031200041434B00436C69636B20746F207265747C
:1031300075726E0053656C656374206F7074696F8F
:103140006E004D383420453000473238205830006A
:10315000473238205930006D6D006D6D2F73004877
:103160006F6D65205A2061786973005A2061786913
:103170007320706F736974696F6E005A004D6F76BB
:1031800065205A206178697300486F6D6520592069
:10319000617869730059206178697320706F736971
:1031A00074696F6E0059004D6F7665205920617803
:1031B000697300486F6D6520582061786973005805
:1031C000206178697320706F736974696F6E00583D
:1031D000004D6F7665205820617869730042414345
:1031E0004B004241434B00436C69636B20746F207A
:1031F00072657475726E0020414C4C00486F6D65AD
:1032000020616C6C2061786573004D6F766520617C
:103210007869730044697361626C652073746570CA
:1032200070657273005265636F76657220707269A3
:103230006E74004D6F76652061786973004D383487
:10324000004578706572742066756E6374696F6E80
:1032500073006D6D005A005265636F766572207061
:1032600072696E742066726F6D005265636F766569
:1032700072206865696768740043414E43454C009D
:10328000436C69636B20746F2072657475726E0095
:103290005052494E54005374617274207072696EBA
:1032A00074005265636F766572207072696E740087
:1032B00041424F52540041424F52540041626F729A
:1032C00074207072696E740054554E450054554E0A
:1032D000450054756E65206D656E7500202F2000C9
:1032E0005A0052656164696E672066696C652E2EAE
:1032F0002E006D6D005A0043414E43454C0053541F
:103300004F524500746865206275696C64706C6129
:103310007465006E6F7A7A6C6520746F756368658A
:1033200073004D6F7665205A20756E74696C207439
:103330006865004D3834205830205930006D6D00DC
:103340005A00746865206275696C64706C6174659C
:10335000006E6F7A7A6C6520746F756368657300B0
:103360004D6F7665205A20756E74696C207468659F
:10337000004D383420583020593000473120462540
:1033800069205A2569205825692059256900205A45
:103390003000205930002058300047323800537434
:1033A0006F7265205A206F6666736574006D6D00DC
:1033B0005A004261627973746570205A206178699D
:1033C00073006D6D005900426162797374657020FD
:1033D000592061786973006D6D005800426162790F
:1033E0007374657020582061786973004241434BC3
:1033F000004241434B00436C69636B20746F207241
:10340000657475726E00426162797374657070697B
:103410006E67001F00250046616E001F001F00251B
:10342000006D6D2F73005370656564200025006D7D
:103430006D1D2F7300466C6F772832292000250000
:103440006D6D1D2F7300466C6F7728312920005A4F
:1034500000426162797374657070696E6700476FCE
:10346000746F2070616765203200436F6E74726FF5
:103470006C206F7074696F6E7300546F67676C6552
:10348000204C4544006D6D2F7300582F59204A651C
:10349000726B004D61782E20582F59204A65726B4F
:1034A000006D6D2F731E00416363656C00416363A3
:1034B000656C65726174696F6E006D6D2F7300527B
:1034C000657472616374207370656564006D6D006E
:1034D0005265747261637400526574726163742022
:1034E0006C656E67746800546F67676C65204C4547
:1034F0004400436F6E74726F6C206F7074696F6EEE
:103500007300476F746F20706167652031005553F9
:103510004220636F6D6D756E69636174696F6E2EA5
:103520002E2E0048656174696E67206275696C644F
:10353000706C6174650048656174696E67206E6FB8
:103540007A7A6C650050617573696E672E2E2E0055
:10355000436C69636B20746F20636F6E74696E7562
:10356000652E2E2E005061757365642E2E2E00255B
:103570000050617573696E672E2E2E005061757351
:1035800065642E2E2E001F2F001F001F002900280B
:10359000004275696C64706C61746520001F2F00B7
:1035A0001F001F00290028002920004E6F7A7A6C26
:1035B0006528001F001F001F0041424F5254004168
:1035C000424F52540041626F7274207072696E747F
:1035D0000054554E450054554E450054756E6520B7
:1035E0006D656E75001F002F001F002F001F002F3C
:1035F00000250048656174696E672075702E2E2E57
:10360000200000002110422063308440A550C66095
:10361000E770088129914AA16BB18CC1ADD1CEE18F
:10362000EFF13112100273325222B5529442F77206
:10363000D662399318837BB35AA3BDD39CC3FFF3DF
:10364000DEE36224433420040114E664C774A44416
:1036500085546AA54BB528850995EEE5CFF5ACC52F
:103660008DD55336722611163006D776F6669556E6
:10367000B4465BB77AA719973887DFF7FEE79DD77F
:10368000BCC7C448E5588668A77840086118022876
:103690002338CCC9EDD98EE9AFF9488969990AA9CF
:1036A0002BB9F55AD44AB77A966A711A500A333A46
:1036B000122AFDDBDCCBBFFB9EEB799B588B3BBB1F
:1036C0001AABA66C877CE44CC55C222C033C600CD6
:1036D000411CAEED8FFDECCDCDDD2AAD0BBD688D6F
:1036E000499D977EB66ED55EF44E133E322E511E26
:1036F000700E9FFFBEEFDDDFFCCF1BBF3AAF599FBF
:10370000788F8891A981CAB1EBA10CD12DC14EF15E
:103710006FE18010A100C230E320045025404670C4
:103720006760B9839893FBA3DAB33DC31CD37FE3EF
:103730005EF3B1029012F322D23235421452776214
:103740005672EAB5CBA5A89589856EF54FE52CD5BF
:103750000DC5E234C324A014810466744764245464
:103760000544DBA7FAB79987B8975FE77EF71DC7CF
:103770003CD7D326F2369106B016576676761546B4
:1037800034564CD96DC90EF92FE9C899E9898AB91F
:10379000ABA94458654806782768C018E108823804
:1037A000A3287DCB5CDB3FEB1EFBF98BD89BBBAB2F
:1037B0009ABB754A545A376A167AF10AD01AB32A54
:1037C000923A2EFD0FED6CDD4DCDAABD8BADE89D7F
:1037D000C98D267C076C645C454CA23C832CE01CA4
:1037E000C10C1FEF3EFF5DCF7CDF9BAFBABFD98F0F
:1037F000F89F176E367E554E745E932EB23ED10EF4
:10380000F01E7C3C3E5E2B3D3F2F5B5D3B2C2A2215
:103810005C0043616E6E6F7420656E746572207318
:1038200075626469723A20004D3234004D323320A3
:103830002573006175746F25692E67006572726F5C
:10384000722077726974696E6720746F2066696C84
:10385000650043617264206572726F723A004E6F48
:1038600074205344207072696E74696E67002F0073
:103870005344207072696E74696E67206279746552
:1038800020002E0044656C6574696F6E2066616966
:103890006C65642C2046696C653A200046696C654D
:1038A0002064656C657465643A002E006F70656E07
:1038B000206661696C65642C2046696C653A20005D
:1038C00057726974696E6720746F2066696C653A17
:1038D00020002E006F70656E206661696C65642C37
:1038E0002046696C653A20002E006F70656E206678
:1038F00061696C65642C2046696C653A20004669F4
:103900006C652073656C6563746564002053697A27
:10391000653A200046696C65206F70656E65643A93
:1039200020002E006F70656E206661696C65642CE6
:103930002046696C653A200053442063617264201C
:103940006F6B006F70656E526F6F74206661696C8B
:10395000656400766F6C756D652E696E697420669E
:1039600061696C656400534420696E697420666106
:10397000696C002F002F0043616E6E6F74206F70B2
:10398000656E20737562646972006563686F3A00E2
:103990004572726F723A00205900205800576970C2
:1039A0006520706F736974696F6E3A006469736142
:1039B000626C656400656E61626C65640046697284
:1039C0006D7761726520776970653A200020590033
:1039D000205800446F636B20706F736974696F6E59
:1039E0003A00486F6D65206F6666736574207A32A1
:1039F00020286D6D293A200064697361626C6564EA
:103A000000656E61626C6564004475616C2073656D
:103A10007475703A20006563686F3A004732380069
:103A2000473238205A300047323820583020593039
:103A3000007769706500543100543000636F6E6622
:103A40006967006563686F3A00436865636B206669
:103A500065656465722E005072696E7420706175C0
:103A60007365642E0069737375652064657465639E
:103A70007465642E004D6174657269616C207472A6
:103A8000616E73706F727400434F4E54494E5545CA
:103A9000005072696E74207061757365642E2043E6
:103AA0006865636B206665656465722E004D6174A0
:103AB000657269616C207472616E73706F727420CC
:103AC00069737375652064657465637465642E003D
:103AD0006563686F3A004572726F723A00416374B1
:103AE0006976652045787472756465723A20004184
:103AF00063746976652045787472756465723A20DE
:103B0000005072696E7465722073746F70706564B2
:103B10002064756520746F206572726F72732E2039
:103B200046697820746865206572726F7220616ED4
:103B30006420757365204D39393920746F207265A2
:103B400073746172742E202854656D70657261748F
:103B50007572652069732072657365742E205365D4
:103B60007420697420616674657220726573746173
:103B70007274696E6729005072696E74657220688C
:103B8000616C7465642E206B696C6C2829206361FC
:103B90006C6C65642100627573793A20706175738D
:103BA000656420666F7220696E707574006275734B
:103BB000793A2070617573656420666F7220757341
:103BC000657200627573793A2070726F6365737302
:103BD000696E6700496E76616C69642065787472FD
:103BE00075646572004D0020400020403A0020427C
:103BF000403A00202F00205400202F0020423A009D
:103C0000202F0020543A006F6B00456E6473746F70
:103C100070207374696C6C207072657373656420B6
:103C20006166746572206261636B696E67206F669E
:103C3000662E20456E6473746F7020737475636BA9
:103C40003F00456E6473746F70206E6F74207072E5
:103C5000657373656420616674657220686F6D6951
:103C60006E6720646F776E2E20456E6473746F707C
:103C70002062726F6B656E3F00456E6473746F7087
:103C8000206E6F7420707265737365642061667452
:103C9000657220686F6D696E6720646F776E2E2085
:103CA000456E6473746F702062726F6B656E3F0057
:103CB0002200556E6B6E6F776E20636F6D6D616E57
:103CC000643A2022004163746976652045787472F5
:103CD000756465723A2000496E76616C696420658E
:103CE0007874727564657200540020423A30002086
:103CF000423A31006F6B20523A00726573756D6500
:103D000064007061757365640020643A0020693A4C
:103D10000020703A006F6B0020643A0020693A007E
:103D200020703A006F6B002C002000486F74656EA5
:103D300064206F6666736574733A002200556E6B7B
:103D40006E6F776E20636F6D6D616E643A20220036
:103D50006F70656E00545249474745524544007A9A
:103D60005F6D61783A20006F70656E00545249476C
:103D7000474552454400795F6D61783A20006F7085
:103D8000656E0054524947474552454400785F6D7F
:103D9000696E3A20005265706F7274696E672065B3
:103DA0006E6473746F702073746174757300464928
:103DB000524D574152455F4E414D453A4D61726CEF
:103DC000696E20556C74696D616B6572323B20536E
:103DD0007072696E7465722F6772626C206D6173A8
:103DE00068757020666F722067656E36204649528E
:103DF0004D574152455F55524C3A687474703A2F92
:103E00002F6769746875622E636F6D2F556C7469C6
:103E10006D616B65722050524F544F434F4C5F564B
:103E2000455253494F4E3A312E30204D4143484977
:103E30004E455F545950453A556C74696D616B65D8
:103E4000722045585452554445525F434F554E5485
:103E50003A320A00453A005A3A00593A0020436F74
:103E6000756E7420583A2000453A005A3A00593A83
:103E700000583A004D3131332053003F0020573A6B
:103E8000002569206D696E2C20256920736563000B
:103E9000456E642066696C65206C697374004265C8
:103EA00067696E2066696C65206C69737400726561
:103EB00073756D6564007061757365640072657318
:103EC000756D6500706175736500256920686F7593
:103ED0007273202569206D696E7574657300446F77
:103EE0006E65207072696E74696E672066696C65B4
:103EF000006F6B00526573656E643A200050726902
:103F00006E7465722073746F70706564206475657B
:103F100020746F206572726F72732E20466978204C
:103F2000746865206572726F7220616E64207573AB
:103F300065204D39393920746F2072657374617250
:103F4000742E202854656D706572617475726520D9
:103F500069732072657365742E20536574206974CB
:103F60002061667465722072657374617274696E23
:103F70006729004E6F204C696E65204E756D626535
:103F800072207769746820636865636B73756D2C44
:103F9000204C617374204C696E653A20004E6F208E
:103FA000436865636B73756D2077697468206C690D
:103FB0006E65206E756D6265722C204C6173742085
:103FC0004C696E653A2000636865636B73756D209C
:103FD0006D69736D617463682C204C617374204C3F
:103FE000696E653A20004C696E65204E756D62659C
:103FF00072206973206E6F74204C617374204C6959
:104000006E65204E756D6265722B312C204C61738C
:1040100074204C696E653A20004D3131300020200B
:10402000506C616E6E657242756666657242797437
:1040300065733A20002046726565204D656D6F728C
:10404000793A20004A616E20323620323032300018
:10405000436F6D70696C65643A200054696E6B65DE
:10406000725F4D61726B325F32302E30312E310013
:10407000207C20417574686F723A20004A616E207E
:10408000323620323032302031393A31313A35321D
:1040900000204C61737420557064617465643A202B
:1040A00000312E302E30004D61726C696E20002080
:1040B000536F667477617265205265736574002072
:1040C0005761746368646F6720526573657400207C
:1040D00042726F776E206F7574205265736574003D
:1040E0002045787465726E616C205265736574004A
:1040F000506F77657255700073746172740022009E
:10410000656E717565696E67202200446F6E65206B
:10411000736176696E672066696C652E006F6B004F
:104120004D3239002F2F616374696F6E3A00FF01C1
:10413000010000E0400000E0400000E040656368EE
:104140006F3A004572726F723A0020746F6F206C84
:104150006F6E6720657874727573696F6E20707208
:104160006576656E7465640020636F6C64206578A5
:1041700074727573696F6E2070726576656E7465A2
:1041800064006563686F3A00205A3A0020593A008B
:1041900020583A00656E6473746F70732068697498
:1041A0003A200024F4D43050C38E20C2A24017829B
:1041B0008B7011127A910D816CD90AA861E108C740
:1041C000586607615143061E4B5D05C145A7041A99
:1041D000411104093D9803713931034036DB026512
:1041E000339102D4305402802E1D02632CEE0175EF
:1041F0002AC501B028A001102781018F2564012B59
:10420000244B01E0223401AC211F018D200D0180DF
:104210001FFC00841EED00971DDF00B81CD200E6D5
:104220001BC600201BBC00641AB200B219A8000A09
:1042300019A0006A189900D117910040178B00B59A
:1042400016840031167E00B31579003A157300C745
:10425000146F0058146A00EE13660088136300257B
:10426000135E00C7125B006C12570015125400C198
:1042700011510070114F0021114B00D61049008DD3
:104280001047004610440002104200C00F4000805A
:104290000F3E00420F3C00060F3B00CB0E38009350
:1042A0000E37005C0E3500270E3400F30D3200C1CE
:1042B0000D3100900D3000600D2E00320D2D0005E7
:1042C0000D2C00D90C2B00AE0C2900850C29005CAC
:1042D0000C2700350C27000E0C2600E80B2400C428
:1042E0000B2400A00B23007D0B23005A0B21003967
:1042F0000B2100180B2000F80A1F00D90A1E00BB72
:104300000A1E009D0A1D00800A1D00630A1C00474A
:104310000A1B002C0A1B00110A1A00F7091A00DDFB
:10432000091900C4091900AB091900920917007B8B
:10433000091800630917004C0916003609160020F9
:104340000916000A091500F5081500E0081400CC4C
:10435000081400B8081400A4081400900813007D85
:104360000812006B081300580812004608120034A7
:10437000081100230811001208110001081100F0B3
:10438000071000E0071000D0071000C0071000B0B1
:10439000070F00A107100091070E0083070F00749C
:1043A000070F0065070E0057070E0049070E003B78
:1043B000070D002E070E0020070D0013070D000645
:1043C000070D00F9060C00ED060D00E0060C00D408
:1043D000060C00C8060C00BC060C00B0060C00A4BD
:1043E000060B0099060C008D060B0082060B007769
:1043F000060B006C060B0061060A0057060B004C0A
:10440000060A0042060A0038060A002E060A0024A0
:10441000060A001A060A001006090007060A00FD2F
:10442000050900F4050900EB050900E2050900D9BA
:10443000050900D0050900C7050900BE050900B53A
:10444000050800AD050800A50509009C05080094B5
:104450000508008C050800840508007C0508007428
:104460000508006C050700650508005D0507005696
:104470000508004E050700470507004005080038FD
:10448000050700310507002A050700230507001C62
:10449000050600160507000F0507000805060002BF
:1044A000050700FB040600F5040700EE040600E81B
:1044B000040600E2040700DB040600D5040600CF72
:1044C000040600C9040600C3040600BD040600B7C4
:1044D000040600B1040500AC040600A6040600A012
:1044E0000405009B04060095040500900406008A5C
:1044F00004050085040500800406007A04050075A3
:10450000040500700405006B0405006604050061E5
:104510000405005C04050057040500520405004D25
:1045200004050048040500430405003E0404003A65
:1045300004050035040500300404002C04050027A0
:10454000040400230405001E0404001A04040016D9
:10455000040500110404000D04040009040500040E
:1045600004040000040400FC030400F8030400F445
:10457000030400F0030400EC030400E8030400E477
:10458000030400E0030400DC030400D8030400D4A7
:10459000030400D0030400CC030400C8030300C5D7
:1045A00003030024F404D9201BC40C5C0E9804C43B
:1045B000095F0265077101F405F900FB04B30048C7
:1045C000048700C10369005803550003034500BE7A
:1045D000023A008402310053022A00290225000415
:1045E000022000E4011C00C8011900AF0117009867
:1045F00001140084011300710110006101100051C9
:10460000010E0043010D0036010B002B010B0020B1
:10461000010B00150109000C01090003010800FB52
:10462000000800F3000800EB000700E4000600DECD
:10463000000600D8000600D2000600CC000500C726
:10464000000500C2000500BD000400B9000400B56B
:10465000000400B1000400AD000400A9000400A59E
:10466000000300A20003009F0004009B00030098C9
:104670000003009500020093000300900003008DEA
:104680000002008B00030088000200860002008404
:10469000000300810002007F0002007D0002007B19
:1046A0000002007900020077000100760002007429
:1046B00000020072000100710002006F0002006D34
:1046C0000001006C0002006A00010069000200673E
:1046D0000001006600010065000100640002006244
:1046E00000010061000100600001005F0002005D48
:1046F0000001005C0001005B0001005A000100594C
:10470000000100580001005700010056000100554B
:10471000000100540001005300000053000100524A
:1047200000010051000100500001004F0001004E47
:104730000000004E0001004D0001004C0001004B44
:104740000000004B0001004A000100490001004840
:10475000000000480001004700010046000000463C
:104760000001004500000045000100440001004335
:10477000000000430001004200000042000100412F
:1047800000000041000100400001003F0000003F28
:104790000001003E0000003E0001003D0000003D21
:1047A0000001003C0000003C0000003C0001003B18
:1047B0000000003B0001003A0000003A000100390F
:1047C0000000003900010038000000380000003807
:1047D00000010037000000370001003600000036FD
:1047E00000000036000100350000003500000035F3
:1047F00000010034000000340000003400010033E8
:1048000000000033000000330001003200000032DD
:1048100000000032000100310000003100000031D2
:104820000001003000000030000000300001002FC7
:104830000000002F0000002F0000002F0001002EBC
:104840000000002E0000002E0001002D0000002DB1
:104850000000002D0000002D0001002C0000002CA5
:104860000000002C0000002C0001002B0000002B99
:104870000000002B0000002B0001002A0000002A8D
:104880000000002A0000002A000100290000002981
:104890000000002900000029000000290001002874
:1048A0000000002800000028000000280000002868
:1048B000000100270000002700000027000000275B
:1048C000000000270001002600000026000000264E
:1048D0000000002600000026000100250000002541
:1048E0000000002500000025000000250000002534
:1048F0000001002400000024000000240000002427
:104900000000002400010023000000230000002319
:10491000000000230000002300000023000000230B
:1049200000010022000000220000002200000022FE
:1049300000000022000000220001002100000021F0
:1049400000000021000000210000002100000021E3
:1049500000000021000100200000002000000020D5
:1049600000000020000000200000002000000020C7
:10497000000000200001001F0000001F0000001FB9
:104980000000001F0000001F0000001F0000001FAB
:104990000001001E0000001E0000001E0000001E9E
:1049A0000000006563686F3A003A204578747275BC
:1049B000646572207377697463686564206F6666E6
:1049C0002E204D494E54454D5020747269676765DD
:1049D0007265642021003A204578747275646572AE
:1049E000207377697463686564206F66662E204D56
:1049F000415854454D50207472696767657265640B
:104A000020210054656D706572617475726520684F
:104A10006561746564206265642073776974636896
:104A20006564206F66662E204D415854454D5020D8
:104A300074726967676572656420212100202D20EA
:104A4000496E76616C69642065787472756465720C
:104A5000206E756D626572202100504944204175B9
:104A6000746F74756E652061626F727465642E0078
:104A7000504944204175746F74756E652066696E87
:104A80006973686564212050757420746865204BD3
:104A9000702C204B6920616E64204B6420636F6E24
:104AA0007374616E747320696E746F20436F6E66E9
:104AB000696775726174696F6E2E68005049442091
:104AC0004175746F74756E65206661696C656421EB
:104AD0002074696D656F75740020403A006F6B201B
:104AE000543A006F6B20423A00504944204175749B
:104AF0006F74756E65206661696C6564212054650C
:104B00006D706572617475726520746F6F2068696D
:104B1000676800204B643A2000204B693A2000204F
:104B20004B703A200020436C6173736963205049D5
:104B30004420002054753A2000204B753A20002074
:104B40006D61783A2000206D696E3A200020643A49
:104B5000200020626961733A200050494420417569
:104B6000746F74756E65207374617274005049447B
:104B7000204175746F74756E65206661696C65643B
:104B80002E20426164206578747275646572206EAF
:104B9000756D6265722E004572726F723A00000088
:104BA000000018070100A807140030082800B80802
:104BB0003C0038095000C0096400480A7800C80A5F
:104BC0008C00480BA000C80BB400480CC800C80CEF
:104BD000DC00400DF000C00D0401380E1801B00ECD
:104BE0002C01280F4001A00F5401181068018810F3
:104BF0007C01001190013013F40148155802401750
:104C0000BC0228192003F01A8403A81CE803401EE4
:104C10004C0448617264636F646564204465666136
:104C2000756C742053657474696E6773204C6F6182
:104C300064656400563031300053746F72656420CF
:104C400073657474696E67732072657472696576D2
:104C50006564002044002049002020204D3330317D
:104C60002050005049442073657474696E67733A2C
:104C700000205A0020590020204D323036205800A4
:104C8000486F6D65206F666673657420286D6D29A9
:104C90003A00204500205A002058002042002054AD
:104CA0000020204D323035205300416476616E6320
:104CB0006564207661726961626C65733A20533D68
:104CC0004D696E20666565647261746520286D6D3E
:104CD0002F73292C20543D4D696E207472617665C6
:104CE0006C20666565647261746520286D6D2F7334
:104CF000292C20423D6D696E696D756D2073656765
:104D00006D656E742074696D6520286D73292C2083
:104D1000583D6D6178696D756D205859206A6572CE
:104D20006B20286D6D2F73292C20205A3D6D6178E2
:104D3000696D756D205A206A65726B20286D6D2F24
:104D400073292C2020453D6D6178696D756D204576
:104D5000206A65726B20286D6D2F73290020540026
:104D600020204D323034205300416363656C6572FE
:104D70006174696F6E3A20533D616363656C65725F
:104D80006174696F6E2C20543D7265747261637436
:104D900020616363656C65726174696F6E002045A4
:104DA00000205A0020590020204D32303120580078
:104DB0004D6178696D756D20416363656C657261E5
:104DC00074696F6E20286D6D2F7332293A0020456B
:104DD00000205A0020590020204D32303320580046
:104DE0004D6178696D756D20666565647261746585
:104DF0007320286D6D2F73293A00204500205A003A
:104E000020590020204D39322058005374657073AA
:104E10002070657220756E69743A00536574746908
:104E20006E67732053746F726564006563686F3AD0
:104E3000004E414E494E495459494E46CDCCCC3D89
:104E40000AD7233C17B7D13877CC2B329595E62477
:104E50001FB14F0A000020410000C84200401C461C
:104E600020BCBE4CCA1B0E5AAEC59D7444CBE0009C
:104E700000010801C80011241FBECFEFD1E2DEBF40
:104E8000CDBF00E00CBF13E0A0E0B2E0ECE4FDE732
:104E900003E00BBF02C007900D92A238B107D9F70B
:104EA00029E1A2E8B3E001C01D92AA32B207E1F7FE
:104EB00017E2C9E3D7E200E006C021970109802F7D
:104EC000FE010F94B5B6C633D10780E00807A9F7F5
:104ED0000F94AEB10D9495BE0C9400001F920F92EA
:104EE0000FB60F9211242F933F938F939F93AF93FD
:104EF000BF938091830390918403A0918503B09127
:104F000086033091820323E0230F2D3720F401968E
:104F1000A11DB11D05C026E8230F0296A11DB11DDC
:104F2000209382038093830390938403A09385034B
:104F3000B09386038091870390918803A0918903A1
:104F4000B0918A030196A11DB11D809387039093B0
:104F50008803A0938903B0938A03BF91AF919F9177
:104F60008F913F912F910F900FBE0F901F9018952A
:104F70002FB7F89460918303709184038091850327
:104F8000909186032FBF08953FB7F89480918703CF
:104F900090918803A0918903B0918A0326B5A89BBC
:104FA00005C02F3F19F00196A11DB11D3FBFBA2FBB
:104FB000A92F982F8827820F911DA11DB11DBC011B
:104FC000CD0142E0660F771F881F991F4A95D1F7E0
:104FD00008958F929F92AF92BF92CF92DF92EF92FD
:104FE000FF926B017C01D0DF4B015C01C114D10445
:104FF000E104F104F1F093D0C7DFDC01CB018819A3
:105000009909AA09BB09883E9340A105B10570F32F
:1050100021E0C21AD108E108F10888EE880E83E089
:10502000981EA11CB11CC114D104E104F10421F7A4
:10503000DDCFFF90EF90DF90CF90BF90AF909F902B
:105040008F9008958230910538F0880F991F880F4E
:10505000991F05970197F1F70895789484B58260B8
:1050600084BD84B5816084BD85B5826085BD85B50C
:10507000816085BDEEE6F0E0808181608083E1E8BB
:10508000F0E01082808182608083808181608083F3
:10509000E0E8F0E0808181608083E1EBF0E08081F6
:1050A00084608083E0EBF0E0808181608083E1E9CF
:1050B000F0E0808182608083808181608083E0E98C
:1050C000F0E0808181608083E1EAF0E080818260AD
:1050D0008083808181608083E0EAF0E0808181606C
:1050E0008083E1E2F1E08081826080838081816061
:1050F0008083E0E2F1E0808181608083EAE7F0E094
:1051000080818460808380818260808380818160EF
:1051100080838081806880831092C1000895089503
:105120001F93CF93DF93182FEB0161E016D12097E7
:1051300011F460E004C0CF3FD10531F461E0812F6C
:10514000DF91CF911F9145C1E12FF0E0EC5DFD4F64
:10515000E4914E2F50E0FA013197E231F10508F069
:105160009DC08827EE58FF4F8F4F0D94B5B684B57C
:10517000806884BDC7BD97C084B5806284BDC8BD4A
:1051800092C080918000806880938000D0938900D5
:10519000C093880088C080918000806280938000E6
:1051A000D0938B00C0938A007EC08091800088607D
:1051B00080938000D0938D00C0938C0074C0809148
:1051C000B00080688093B000C093B3006CC0809141
:1051D000B00080628093B000C093B40064C080913E
:1051E0009000806880939000D0939900C0939800BD
:1051F0005AC080919000806280939000D0939B0071
:10520000C0939A0050C08091900088608093900075
:10521000D0939D00C0939C0046C08091A000806800
:105220008093A0008091A0008F7B8093A000D093FA
:10523000A900C093A80037C08091A000806280932D
:10524000A000D093AB00C093AA002DC08091A00015
:1052500088608093A000D093AD00C093AC0023C0C1
:1052600080912001806880932001D0932901C09310
:10527000280119C080912001806280932001D09381
:105280002B01C0932A010FC0809120018860809378
:105290002001D0932D01C0932C0105C0C038D10549
:1052A0000CF04CCF46CFDF91CF911F91089590E045
:1052B000FC013197E231F10508F04EC08827EC5728
:1052C000FF4F8F4F0D94B5B6809180008F7703C04C
:1052D000809180008F7D8093800008958091800070
:1052E000877FF9CF84B58F7702C084B58F7D84BD69
:1052F00008958091B0008F7703C08091B0008F7DBA
:105300008093B0000895809190008F7707C08091BE
:1053100090008F7D03C080919000877F80939000E4
:1053200008958091A0008F7707C08091A0008F7DA5
:1053300003C08091A000877F8093A0000895809192
:1053400020018F7707C0809120018F7D03C080915D
:105350002001877F809320010895CF93DF9390E011
:10536000FC01E659FD4F2491FC01E055FD4F84916D
:10537000882361F190E0880F991FFC01E05FFC4FEA
:10538000C591D491FC01EA50FD4FA591B4916111F2
:1053900009C09FB7F8948881209582238883EC9177
:1053A0002E230BC0623061F49FB7F8943881822FAE
:1053B000809583238883EC912E2B2C939FBF06C06E
:1053C0008FB7F894E8812E2B28838FBFDF91CF9180
:1053D00008951F93CF93DF93282F30E0F901EC5D00
:1053E000FD4F8491F901E659FD4FD491F901E05543
:1053F000FD4FC491CC23C1F0162F811158DFEC2F43
:10540000F0E0EE0FFF1FEA50FD4FA591B4918FB76A
:10541000F894111105C09C91ED2FE095E92302C08D
:10542000EC91ED2BEC938FBFDF91CF911F910895FD
:1054300008951F920F920FB60F9211240BB60F9280
:105440002F933F934F935F936F937F938F939F938C
:10545000AF93BF93EF93FF93E0910E02F0910F0291
:105460001995FF91EF91BF91AF919F918F917F918E
:105470006F915F914F913F912F910F900BBE0F90C5
:105480000FBE0F901F9018951F920F920FB60F929C
:1054900011240BB60F922F933F934F935F936F930B
:1054A0007F938F939F93AF93BF93EF93FF93E0917D
:1054B0001002F09111021995FF91EF91BF91AF91F8
:1054C0009F918F917F916F915F914F913F912F911C
:1054D0000F900BBE0F900FBE0F901F9018951F924C
:1054E0000F920FB60F9211240BB60F922F933F938A
:1054F0004F935F936F937F938F939F93AF93BF93DC
:10550000EF93FF93E0911202F09113021995FF912E
:10551000EF91BF91AF919F918F917F916F915F912B
:105520004F913F912F910F900BBE0F900FBE0F9098
:105530001F9018951F920F920FB60F9211240BB661
:105540000F922F933F934F935F936F937F938F931C
:105550009F93AF93BF93EF93FF93E0911402F09169
:1055600015021995FF91EF91BF91AF919F918F9186
:105570007F916F915F914F913F912F910F900BBE53
:105580000F900FBE0F901F9018951F920F920FB69D
:105590000F9211240BB60F922F933F934F935F936B
:1055A0006F937F938F939F93AF93BF93EF93FF93EB
:1055B000E0910A02F0910B021995FF91EF91BF91D2
:1055C000AF919F918F917F916F915F914F913F919B
:1055D0002F910F900BBE0F900FBE0F901F9018953C
:1055E0001F920F920FB60F9211240BB60F922F93AA
:1055F0003F934F935F936F937F938F939F93AF935B
:10560000BF93EF93FF93E0910C02F0910D02199577
:10561000FF91EF91BF91AF919F918F917F916F918A
:105620005F914F913F912F910F900BBE0F900FBE46
:105630000F901F9018951F920F920FB60F92112482
:105640000BB60F922F933F934F935F936F937F937C
:105650008F939F93AF93BF93EF93FF93E0911602C5
:10566000F09117021995FF91EF91BF91AF919F9122
:105670008F917F916F915F914F913F912F910F90FB
:105680000BBE0F900FBE0F901F9018951F920F9298
:105690000FB60F9211240BB60F922F933F934F9397
:1056A0005F936F937F938F939F93AF93BF93EF938A
:1056B000FF93E0911802F09119021995FF91EF9173
:1056C000BF91AF919F918F917F916F915F914F911A
:1056D0003F912F910F900BBE0F900FBE0F901F9018
:1056E0001895CF92DF92EF92FF920F931F93CF9373
:1056F000DF93CDB7DEB72A970FB6F894DEBF0FBEA3
:10570000CDBF88E89FEF9093C2038093C10380913F
:10571000BC0080FD1092C7034091C70388E0840F4E
:10572000405E682F0E9412370E9439360E94BA3BB1
:105730004DE955E066E180E00E94133D6CE074E0C5
:1057400086E30E9464398091C70381508335C8F095
:105750000E943F368091A403811149C02091C70364
:1057600030E0220F331F40912602429FC001439F29
:10577000900D112464E670E00F9464B688E0D0DCEC
:1057800036C007E116E1E12CF12CDE2C4091C70375
:10579000842F90E0880F991F97012D5E3F4F2817A7
:1057A000390744F4440F44514E19202F612F80E0F3
:1057B0000E94C53B8091C703282F30E0220F331F82
:1057C0002E153F0534F0880F202F4FE7612F8D19DC
:1057D00004C0202F4FE7612F80E00E94C53B2FEFD0
:1057E000E21AF20A1E5F0E5F1A3279F6B1CF80918B
:1057F000C603811105C08091C003882309F455C0F8
:105800008091A40381110CC0809126022FEF829F0A
:10581000C001112464E670E00F9464B688E080DC77
:105820001092C6031092C7038091DD0982FF04C065
:1058300040E060E080E003C046E368E288E20E9466
:1058400012370E94393680E094E00F9464BE8535AB
:1058500099F460E082E699E02A960FB6F894DEBFEC
:105860000FBECDBFDF91CF911F910F91FF90EF90B1
:10587000DF90CF900C946EC2C090C0031A82198240
:105880001C821B828BED9DE4282F9E838D8388E8EC
:10589000482FE12CFA8000E01C813E815FEF60E040
:1058A00070E082E699E00E94B8C12A960FB6F8949B
:1058B000DEBF0FBECDBFDF91CF911F910F91FF9043
:1058C000EF90DF90CF900895CF92EF92FF920F93D9
:1058D0001F93CF93DF93CDB7DEB72A970FB6F89417
:1058E000DEBF0FBECDBF0F94C8120E94AA3E0E9419
:1058F000E58081110AC00E94FC7460E080E00E9493
:10590000D27E61E080E00E94D27E0E945B7B30DB31
:10591000DC01CB0182519D4FAF4FBF4F80938B0372
:1059200090938C03A0938D03B0938E031092C603C3
:105930001092C70310928F031A8219821C821B8255
:105940008FE29EEA282F9E838D8384E0482FC12C0E
:10595000E12CFA8000E01C813E8150E060E070E0C4
:1059600082E699E00E94F9C11A8219821C821B8288
:1059700081E79BE2282F9E838D8388E8482FFA8059
:105980001C813E815FEF60E070E082E699E00E945A
:105990001BC260E070E088E02A960FB6F894DEBF84
:1059A0000FBECDBFDF91CF911F910F91FF90EF9070
:1059B000CF90B6CBCF92DF92EF92FF920F931F93CF
:1059C000CF93DF93CDB7DEB7A0970FB6F894DEBFC5
:1059D0000FBECDBFCDDAC0908B03D0908C03E0908A
:1059E0008D03F0908E03C616D706E806F90618F563
:1059F000D701C6018196A11DB11D80938B039093A1
:105A00008C03A0938D03B0938E039091C603809175
:105A1000C703992341F082508093C70381110BC0C3
:105A20001092C60308C08E5F8093C7038E3718F0AC
:105A300081E08093C6038091BC0080FD91C10E94EB
:105A4000833E92B392FB992790F981E09827809149
:105A50006B1085FB222720F9291781F02091E31193
:105A6000222321F021502093E3110BC0992311F040
:105A7000806201C08F7D80936B1003C088E28093A9
:105A8000E3110F94AC54882309F49EC0CE01019613
:105A90007C0188E1F70111928A95E9F76DEF73E0D7
:105AA000C7010F94CCBA0E94BA3B6DEE73E08AE056
:105AB0000E9464390F94B35490E0FC013197EA30AE
:105AC000F10508F046C08827EA56FF4F8F4F0D9426
:105AD000B5B661EE73E084E10E9464396CED73E069
